:020000040800F2
:10000000000002203D4900081109000865090008A8
:100010008109000891090008A109000800000000FA
:10002000000000000000000000000000390A000885
:10003000490A000800000000590A0008690A00087F
:100040008D4900088D4900088D4900088D49000838
:100050008D4900088D4900088D4900088D49000828
:100060008D4900088D4900088D4900088D49000818
:100070008D4900088D4900088D4900088D49000808
:100080008D4900088D4900088D4900088D490008F8
:100090008D4900088D4900088D4900088D490008E8
:1000A0008D4900088D4900088D4900088D490008D8
:1000B0008D4900088D4900088D4900088D490008C8
:1000C0008D4900088D4900088D4900088D490008B8
:1000D0008D4900088D4900088D4900088D490008A8
:1000E0008D4900088D4900088D4900088D49000898
:1000F0008D4900088D4900088D4900088D49000888
:100100008D4900087D0A00088D4900088D490008C6
:100110008D4900088D4900088D4900088D49000867
:100120008D4900088D4900088D490008810A0008A2
:100130008D4900088D4900088D4900088D49000847
:100140008D4900088D4900088D4900088D49000837
:100150008D4900088D4900088D4900088D49000827
:100160008D4900088D4900088D4900088D49000817
:100170008D4900088D4900088D4900088D49000807
:080180008D4900088D490008BB
:1001880010B5054C237833B9044B13B10448AFF3C9
:1001980000800123237010BDA0080020000000008B
:1001A800845A000808B5064B1BB106480649AFF348
:1001B80000800648036813B1054B03B1984708BD92
:1001C80000000000845A0008A40800209C080020B1
:1001D80000000000154B002B08BF134B9D46A3F5EC
:1001E800803A00218B460F461348144A121A04F02D
:1001F8005FFD0F4B002B00D098470E4B002B00D013
:1002080098470020002104000D000D48002802D066
:100218000C4804F06FFE04F023FD2000290004F0D0
:1002280047FB04F00DFD00BF0000080000000000BF
:100238000000000000000000A00800202C09002099
:10024800FD4E0008094F000870B58D4CD4ED007ABA
:100258002068FDEEE77A2DED028B94ED008A17EE0B
:10026800906A03F0BFFF874B002204F00FF8BDEE41
:10027800C88A04F0A5FA18EE102A6FF0630505FB8A
:100288000202002AB8BF524231467F4801F0BCF84A
:10029800D4ED017A606894ED018AFDEEE77ABDEE4F
:1002A800C88A17EE906A03F09DFF764B002203F090
:1002B800EDFF04F085FA18EE102A05FB0202002A69
:1002C800B8BF52423146714801F09EF8D4ED027A27
:1002D800A06894ED028AFDEEE77ABDEEC88A17EEB3
:1002E800906A03F07FFF674B002203F0CFFF04F012
:1002F80067FA18EE102A05FB0202002AB8BF52421C
:100308003146634801F080F8D4ED037AE06894ED53
:10031800038AFDEEE77ABDEEC88A17EE906A03F00D
:1003280061FF584B002203F0B1FF04F049FA18EEC0
:10033800102A05FB0202002AB8BF5242314655482E
:1003480001F062F8D4ED047A206994ED048AFDEE98
:10035800E77ABDEEC88A17EE906A03F043FF494B6F
:10036800002203F093FF04F02BFA18EE102A05FB85
:100378000202002AB8BF52423146474801F044F809
:10038800D4ED057A606994ED058AFDEEE77ABDEE55
:10039800C88A17EE906A03F025FF3A4B002203F053
:1003A80075FF04F00DFA18EE102A05FB0202002A68
:1003B800B8BF52423146394801F026F8D4ED067AE2
:1003C800A06994ED068AFDEEE77ABDEEC88A17EEBD
:1003D800906A03F007FF2B4B002203F057FF04F04D
:1003E800EFF918EE102A05FB0202002AB8BF5242A4
:1003F80031462B4801F008F8D4ED077AE06994ED0E
:10040800078AFDEEE77ABDEEC88A17EE906A03F018
:10041800E9FE1C4B002203F039FF04F0D1F918EE75
:10042800102A05FB02023146002AB8BF52421D4875
:1004380000F0EAFFD4ED087A206A94ED088AFDEE10
:10044800E77ABDEEC88A17EE904A03F0CBFE002289
:100458000C4B03F01BFF04F0B3F918EE103A05FB40
:1004680003022146002AB8BF52420F4800F0CCFFD1
:10047800BDEC028B0D48BDE8704000F0C5BF00BF61
:10048800BC08002000005940DC570008F05700085D
:100498000458000818580008305800084858000840
:1004A800605800087858000890580008B0590008AB
:1004B80008B5154BD3ED005A93ED006A93ED015A38
:1004C800D3ED017AD3ED026A93ED027A65EE277ACD
:1004D800E5EE867AE6EE877A17EE900A03F082FE5A
:1004E80041EC100B04F050FA51EC100B04F090F9A9
:1004F800DFED067A07EE100AB4EEE77AF1EE10FAAD
:1005080054BF0020012008BDBC0800209A99993EDC
:1005180008B50948012101F021FE30B907484FF418
:100528007041BDE8084001F02FBE04484FF4704107
:10053800BDE8084001F026BE00000240000C024061
:1005480010B5082082B0012101F088FF4FF47041F6
:10055800002303220091012406488DF804406946CF
:100568008DF806308DF807308DF8052001F07CFDF8
:1005780002B010BD000C024010B5012082B0014647
:1005880001F06CFF01210023032200910224074897
:100598008DF8043069468DF806308DF807408DF8DF
:1005A800052001F061FD02B010BD00BF000002404F
:1005B800F0B587B000240C234FF4E1321D4DADF89F
:1005C8001230042001210292ADF80C40ADF80E4023
:1005D800ADF81040ADF8144001F040FF4FF4002092
:1005E800012101F05FFF28460A21082201F0DAFD07
:1005F800114E28460B21082201F0D4FD01270223C1
:100608004FF44062284669468DF804308DF805306D
:1006180000928DF806408DF8077001F025FD3046F0
:1006280002A902F071F83046394602F0F3F807B033
:10063800F0BD00BF00080240004C0040F0B58BB090
:1006480002A801F099FE039A3A493B4B3B483C4EBD
:100658003C4FA1FB024292094FF0F00E0024013AF0
:1006680007215A604FF4E13580F823E00C229C60A2
:10067800042019600121ADF822200695ADF81C4030
:10068800ADF81E40ADF82040ADF8244001F0E6FE7C
:100698004FF40020012101F005FF30460A2108220D
:1006A80001F080FD082230460B2101F07BFD012579
:1006B8004FF4406330466946022600938DF80640A1
:1006C8008DF807508DF804608DF8056001F0CCFCBA
:1006D800384606A902F018F83846294602F09AF872
:1006E8002946082001F0BAFE03274FF4704306A9F3
:1006F800154806938DF81C508DF81E408DF81F4044
:100708008DF81D7001F0B0FC2846294601F0A6FEC0
:1007180006A90E488DF81F6006958DF81C408DF8C7
:100728001E408DF81D7001F09FFC00F00BFF0BB010
:10073800F0BD00BFD34D621010E000E000ED00E016
:1007480000080240004C0040000C0240000002403B
:10075800024A10601368002BFCD170472009002062
:10076800034B1A6812B11A68013A1A60704700BF41
:1007780020090020014B586A704700BFBC080020C0
:10078800404A414BD2F88810404841F47001C2F801
:1007980088101968002241F0010119609A601968EF
:1007A80021F0847121F4803119605860196882B091
:1007B80021F480211960DA60009201921A6842F4EB
:1007C80080321A601A4603E0009BB3F5A06F09D087
:1007D800136803F400330193009B01330093019BDA
:1007E800002BF1D0284B1B6813F4003318BF0123EA
:1007F8000193019B012B14D0234A254B916821F4C6
:1008080000019160C2F88430136843F0806313607C
:1008180013681B01FCD51B4B4FF000629A6002B0B5
:100828007047194B1B4A186C1B4940F080501864DC
:10083800106840F4804010609A689A609A6842F4A0
:1008480000429A609A6842F4A0529A6059601A6805
:1008580042F080721A6019460B680B4A9801FBD562
:100868000E4B40F205611960936823F0030393600F
:10087800936843F002039360936803F00C03082B1A
:10088800FAD1B9E700ED00E000380240103000244A
:10089800003000500070004008544007003C0240FF
:1008A800154B9A6802F00C02042A23D0082A09D0B2
:1008B800124A1149124B8968C1F30311595CCA40A5
:1008C8001A617047586859685B6842024CBF0D4A04
:1008D8000A4A01F03F01C3F38813B2FBF1F202FBAD
:1008E80003F2054B5B68C3F3014301335B00B2FBC2
:1008F800F3F2DEE7034ADCE7003802400024F400A4
:100908000400002000127A0008B5024800F07CFDBF
:10091800FEE700BFC458000800B5034603F1140100
:100928000EC985B0094801910292039300F06CFD4D
:100938000299074800F068FD0399064800F064FD35
:100948000199054800F060FDFEE700BFD458000893
:10095800E0580008EC580008F85800081EF0040F8A
:100968000CBFEFF30880EFF309808169004A104754
:1009780021090008FEE700BF08B5024800F044FD61
:10098800FEE700BF0459000808B5024800F03CFD26
:10099800FEE700BF185900081C4C1D4808B500F0B8
:1009A80033FDA16A1B4800F02FFDA36A9B0128D4E0
:1009B800164B9B6ADC0120D4144B9B6A180318D48D
:1009C800124B9B6A590310D4104B9B6A9A0308D4A4
:1009D8000E4B9B6ADB0300D4FEE70F4800F014FDC2
:1009E800FAE70E4800F010FDF2E70D4800F00CFDA4
:1009F800EAE70C4800F008FDE2E70B4800F004FDC8
:100A0800DAE70A4800F000FDD2E700BF00ED00E099
:100A18002C59000844590008B4590008A059000886
:100A28008C59000878590008605900084C5900088A
:100A380008B5024800F0E8FCFEE700BFD0590008FE
:100A480008B5024800F0E0FCFEE700BFE0590008E6
:100A580008B5024800F0D8FCFEE700BFF4590008CA
:100A680008B5FFF77DFE024B1A6801321A6008BD0F
:100A7800E0080020704700BF704700BF4FF0FF300C
:100A8800704700BF024B0C221A604FF0FF307047CE
:100A980028090020024B0B221A604FF0FF307047E4
:100AA800280900204FF400534B600020704700BF16
:100AB80001207047022804D9034B09221A6000203C
:100AC80070470120704700BF28090020024B1622FA
:100AD8001A604FF0FF30704728090020024B1F2290
:100AE8001A604FF0FF307047280900200020704737
:100AF800134A136810B4FBB1EFF308811844884215
:100B080004D810605DF8044B184670470D490E4A2A
:100B180001F11904104613885B06FCD511F8013B56
:100B28008380A142F7D1094B5DF8044B0C221A606F
:100B38004FF0FF3318467047054B1360DCE700BFE2
:100B4800E4080020085A0008004C0040280900204A
:100B58002C09002070B478B9002A0BDD094C8E18D6
:100B6800254623889B06FCD5AB8801F8013BB1429A
:100B7800F7D1104670BC7047034B09221A604FF03A
:100B8800FF30F7E7004C0040280900204FF40053DD
:100B98004B600020704700BF4FF0FF30704700BF28
:100BA800024B02221A604FF0FF30704728090020DC
:100BB800024B0A221A604FF0FF30704728090020C4
:100BC800012870B418D002280FD1002A0ADD124C6F
:100BD8008E18254623885B06FCD511F8013BAB80AF
:100BE800B142F7D1104670BC70470C4B09224FF048
:100BF800FF301A6070BC7047002AF3DD064C8E186F
:100C0800254623885806FCD511F8013BAB80B14234
:100C1800F7D11046E7E700BF004C00402809002044
:100C280008B5012002490422FFF7CAFFFEE700BF0A
:100C3800245A0008044A138803495B06FBD5C0F30D
:100C480008038B80704700BF004C00402DE9F04737
:100C5800B2F1000804468A465BDD0D78002D52D0BB
:100C68000F46002017F8012F0130002AFAD18045DD
:100C78004ADC90469A0754BF2027302713F0010317
:100C8800B94644D1B8F1000F50DD002C50D023688C
:100C980042461F702368013A03F101032360F8D12B
:100CA8009AF8005046464FF0000828465DB1DCB17E
:100CB80023685146187023680133236011F8010F27
:100CC80001360028F6D1B8F1000F0ADD3CB32368DD
:100CD80041461F702368013903F101032360F8D1ED
:100CE80046443046BDE8F087FFF7A4FF1AF8010F25
:100CF80001360028E7D0FFF79DFF1AF8010F0136EB
:100D08000028F1D1DFE72846C0EB0808B2E7002643
:100D1800CBE74FF020094F4600260D78C5E744463B
:100D28004846FFF787FF013CFAD1D9E71E46BCE7E2
:100D380045464846FFF77EFF013DFAD1B0E700BFC0
:100D48002DE9F04784B01F46DDF830A0044600289E
:100D58007CD0002A66D100238DF80F30002C00F0DB
:100D6800BA800D980DF10E03A0F13A0CB4FBF1F620
:100D780001FB164404EB0C00092CC8BF044604F11F
:100D88003000C0B21D4618703446013B002EEDD12C
:100D98000446002A3AD19146002F50DD002C52D04B
:100DA8002A46002312F8011F01330029FAD19F4275
:100DB8004ADC0F461AF0020F0CBF4FF020084FF024
:100DC80030081AF0010A3CD1002F3ADDBA464046F5
:100DD800FFF730FFBAF1010AF9D13E4657463CB158
:100DE8002046FFF727FF15F8010F01360028F8D134
:100DF800002F06DD3C464046FFF71CFF013CFAD1B8
:100E08003E4409EB060004B0BDE8F08777B11AF05C
:100E1800020F0BD02D20FFF70DFF013F4FF0010906
:100E28002C78B9E70A2951D0002294E72D24002F05
:100E380005F8014C4FF0000905F1FF35B0DC4FF023
:100E480020080026CBE72346FF1AB3E73023002FFC
:100E58008DF801008DF8003032DDE846013018F8D1
:100E68000030002BFAD18742CCBFC0EB07071F46E2
:100E78001AF0020F0CBF202530251AF0010A23D1E1
:100E8800002F21DD3C462846FFF7D4FE013CFAD16D
:100E98003E462746C6EB080430200136FFF7CAFE57
:100EA800A05D0028F9D1002F06DD3C462846FFF753
:100EB800C1FE013CFAD13E44304604B0BDE8F0879B
:100EC80006462025E846E5E70026E3E70028ABDAF2
:100ED800444201223FE70DF10F05002A3FF45BAFC2
:100EE80094E700BF2DE9F04F814687B00078039161
:100EF800002800F041810026A14F09E0FFF79AFE83
:100F080001364C46607804F10109002800F0A08001
:100F18002528F3D199F8015009F10104002D00F0BA
:100F28009780252D00F098802D2D03BF99F8025049
:100F380009F102044FF0010C4FF0000C302D08D1DC
:100F4800631C1D78302D1C464CF0020C03F1010384
:100F5800F7D0A5F13002D3B2092B00F2DA80611C78
:100F680000230C4611F8015B03EB830302EB4303F8
:100F7800A5F13002D0B20928F3D9732D6ED0642DB3
:100F880000F0B980782D00F0C680582D00F0D78089
:100F9800752D00F0DA80632DB4D1039A4FF000016B
:100FA8008DF8151092F800808DF81480111D0391AA
:100FB800002B00F0DC80B8F1000F00F0DF804FF06C
:100FC800000A0DF1140B0AF1010A1BF80A10002996
:100FD800F9D15345CCBFCAEB030A4FF0000A1CF005
:100FE800020F14BF4FF030094FF020091CF0010523
:100FF80040F0B980BAF1000F08DDD3464846FFF744
:1010080019FEBBF1010BF9D15546DA46B8F1000FCC
:101018000CD00DF1140BC5EB0B0B01354046FFF757
:1010280009FE1BF80580B8F1000FF6D1BAF1000FE0
:1010380007DDD3464846FFF7FDFDBBF1010BF9D1AB
:10104800554460782E4404F1010900287FF460AF0C
:10105800304607B0BDE8F08FA1464FE7039AD2F8B3
:1010680000900432B9F1000F08BFB9460392002B73
:101078005FD099F80000002877D04A464FF0000A60
:1010880012F8011F0AF1010A0029F9D19A45B4BFE3
:10109800CAEB030A4FF0000A1CF0020F14BF3025F8
:1010A80020251CF0010C23D1BAF1000F20DDD04619
:1010B8002846FFF7BFFDB8F10108F9D199F80000FB
:1010C800D346C24638B1FFF7B5FD19F8010F0BF149
:1010D800010B0028F7D1BAF1000F07DDD1462846E9
:1010E800FFF7A8FDB9F10109F9D1D3445E4409E736
:1010F8004FF0000BE6E7039A612110680191151D76
:10110800CDF800C00A2101220395FFF719FE064415
:10111800F8E6002331E7039A61211068CDF800C092
:10112800151D0191002210210395FFF709FE0644C1
:10113800E8E69B469A46202599F80000C2E7039AFC
:1011480041211068CDF800C0EAE7039A61211068D0
:101158000191151DCDF800C00A2100220395FFF763
:10116800EFFD0644CEE6002550E782468EE71D4691
:101178009A464FF0200949E7064669E7C24628E73C
:101188002C5A00082DE9F04707468AB008780392E0
:101198000D46002800F02A81DFF86482DFF86492A7
:1011A8004FF0000A252815D0002F5CD03B68187036
:1011B8003B6801333B600AF1010A2C466078651CE4
:1011C8000028EFD117B13B6800221A7050460AB0C8
:1011D800BDE8F0876E786C1C002EF3D0252E3FD02A
:1011E8002D2E03BFAE78AC1C01230023302E08D16E
:1011F800621C1678302E144643F0020302F10102F5
:10120800F7D0A6F13001CAB2092A63D8651C0022BA
:101218002C4615F8016B02EB820201EB4202A6F1A3
:101228003001C8B20928F3D9732E1FD0642E29D0F3
:10123800782E51D0582E6DD0752E00F08780632EF1
:10124800BCD10399081D0E6803900025384605A9EE
:101258008DF814608DF81550FFF7F8FC8244ADE75F
:101268002546002FA2D1FFF7E5FCA4E70398016803
:10127800051D002908BF494638460395FFF7E6FCD7
:1012880082449BE703990E680431002E039100F015
:10129800A28078DB4FF0000E30468DF827E00DF184
:1012A8002606A8FB0015ED0805EB850C3146A0EBDA
:1012B8004C0000F130060E7028464E1E002DF0D16D
:1012C800BEF1000F74D175463846FFF7BFFC2844BD
:1012D800824473E70022A7E703990D68043103915C
:1012E800002D58D000218DF827100DF1260005F0AB
:1012F8000F0101F127060929C8BF314601F130065F
:101308002D09014600F80169F1D13846FFF79EFC26
:10131800824453E703990D6804310391002D3AD0B4
:1013280000218DF827100DF1260005F00F01CE1DC4
:101338000929C8BF314601F130062D09014600F8D8
:101348000169F2D13846FFF781FCE1E703990D689E
:1013580004310391FDB100218DF827100DF126000D
:10136800A8FB0561C90801EB8106A5EB460505F157
:1013780030060D46014600F80169002DF0D13846C7
:10138800FFF764FCC4E7002170428DF8271068B1AC
:101398004FF0010E83E73026384606A98DF819501C
:1013A8008DF81860FFF752FC824407E70DF127011A
:1013B8005AB1980709D5DFB138682D250570386806
:1013C80001303860013A01257EE72D2001F8010C33
:1013D8000025013978E73025384606A98DF81960C7
:1013E8008DF81850FFF732FC8244E7E68246E9E6BA
:1013F8002D208DE80E00FFF71DFC9DE80E00E1E7AB
:10140800CDCCCCCC2C5A00080FB400B583B004A9BD
:1014180051F8040B0191FFF765FD03B05DF804EB8B
:1014280004B070470EB400B584B005AA019052F814
:10143800041B039201A8FFF7A5FE04B05DF804EBB6
:1014480003B07047000000002DE9F0412B4CD4F8A0
:10145800008007460E46154629484FF4003102F031
:1014680005F928B12368C8EB0303B3F5FA7FF3D372
:101478002348012101F0CAFFD4F8008020482149FF
:1014880002F0E0F828B92368C8EB0303B3F5FA7F44
:10149800F4D339461A48002201F0D4FF27681848C7
:1014A800194902F0CFF820B92368DB1BB3F5FA7F9E
:1014B800F5D33146124802F05DF826681048134902
:1014C80002F0C0F820B923689B1BB3F5FA7FF5D367
:1014D80029460B4802F04EF8256809480B4902F0E6
:1014E800B1F820B923685B1BB3F5FA7FF5D304483C
:1014F8000121BDE8F04101F097BF00BFE0080020DE
:101508000054004001000300820007008400070027
:101518003C2020215722FFF797BF00BFD42020216D
:101528000F22FFF791BF00BF08B53C2024211422E9
:10153800FFF78AFF3C2026210022BDE80840FFF77C
:1015480083BF00BF70B54FF4001086B0294D2A4EF6
:10155800012100F0A7FF0220012100F07FFF0124F4
:1015680002232846C02269468DF804308DF80530DC
:1015780000928DF806408DF8074000F075FD28466A
:101588000621042200F00EFE28460721042200F05E
:1015980009FE1A4B029300254FF480434BF6FF7265
:1015A800304602A9ADF81430ADF80E20ADF80C5055
:1015B800ADF81050ADF8125001F098FE30462146B3
:1015C80001F016FF3C2020215722FFF73DFFD420D1
:1015D80020210F22FFF738FF3C2024211422FFF797
:1015E80033FF2A463C202621FFF72EFF204606B06F
:1015F80070BD00BF0004024000540040A0860100F6
:101608002DE9F041554CD4F8008006460F461546A2
:1016180053484FF4003102F029F828B12368C8EB89
:101628000303B3F5FA7FF3D34D48012101F0EEFE31
:10163800D4F800804A484B4902F004F828B92368D6
:10164800C8EB0303B3F5FA7FF4D3454831460022CB
:1016580001F0F8FED4F800804148434901F0F2FF58
:1016680028B92368C8EB0303B3F5FA7FF4D347F02E
:1016780080013B4801F07EFF276839483B4901F06B
:10168800E1FF20B92368DB1BB3F5FA7FF5D33448B3
:10169800012101F0BBFE27683148324901F0D2FF31
:1016A80020B92368DB1BB3F5FA7FF5D331462C4804
:1016B800012201F0C7FE266829482D4901F0C2FF22
:1016C80020B923689B1BB3F5FA7FF5D324484FF460
:1016D800006101F021FF26682148264901F0B2FF88
:1016E800236860B99B1BB3F5FA7FF5D32248FFF74F
:1016F8008BFE1B480121BDE8F04101F095BE9B1B04
:10170800B3F5FA7FDFF85480F0D2154801F034FFC2
:10171800D8F8006007461248164901F093FF23687D
:1017280060B99B1BB3F5FA7FF5D31448FFF76CFE3D
:101738000B480121BDE8F04101F076BE9E1BB6F5CD
:10174800FA7FF2D2064801F017FF47EA0020288006
:1017580001210348BDE8F04101F066BEE008002021
:1017680000540040010003008200070084000700C5
:101778000200030040000300345A0008545A0008CD
:1017880010B586B0002304466A463C202821ADF8EF
:101798000030ADF80830ADF81030FFF731FFBDF973
:1017A800000007EE900AF8EEE77A17EE900A02F0CA
:1017B80019FD23A3D3E9002302F092FE0B4602464B
:1017C80002F0B2FB03F024F802AA20602A213C2090
:1017D800FFF716FFBDF9080007EE900AF8EEE77A62
:1017E80017EE900A02F0FEFC15A3D3E9002302F0DD
:1017F80077FE0B46024602F097FB03F009F804AAAD
:1018080060602C213C20FFF7FBFEBDF9100007EEBD
:10181800900AF8EEE77A17EE900A02F0E3FC08A3C4
:10182800D3E9002302F05CFE02460B4602F07CFB83
:1018380002F0EEFFA06006B010BD00BFAFF300805D
:1018480000000000C0FFDF4010B586B0002304464A
:101858006A463C200821ADF80030ADF80830ADF8F4
:101868001030FFF7CDFEBDF9000007EE900AF8EE44
:10187800E77A17EE900A02F0B5FC23A3D3E9002318
:1018880002F02EFE224B002202F000FD02F0C0FF03
:1018980002AA20600A213C20FFF7B2FEBDF9080029
:1018A80007EE900AF8EEE77A17EE900A02F09AFC33
:1018B80015A3D3E9002302F013FE154B002202F012
:1018C800E5FC02F0A5FF04AA60600C213C20FFF7AC
:1018D80097FEBDF9100007EE900AF8EEE77A17EECA
:1018E800900A02F07FFC08A3D3E9002302F0F8FD78
:1018F8000022074B02F0CAFC02F08AFFA06006B083
:1019080010BD00BFAFF3008000000000C0FFDF4043
:101918000000104010B586B0002304466A46D42063
:101928002821ADF80030ADF80830ADF81030FFF7D9
:1019380067FEBDF9000007EE900AF8EEE77A17EEA9
:10194800900A02F04FFC24A3D3E9002302F0C8FD5B
:1019580023A3D3E9002302F099FC02F059FF02AA5D
:1019680020602A21D420FFF74BFEBDF9080007EEBE
:10197800900AF8EEE77A17EE900A02F033FC16A305
:10198800D3E9002302F0ACFD15A3D3E9002302F04C
:101998007DFC02F03DFF04AA60602C21D420FFF7F3
:1019A8002FFEBDF9100007EE900AF8EEE77A17EE61
:1019B800900A02F017FC08A3D3E9002302F090FD77
:1019C80007A3D3E9002302F061FC02F021FFA06025
:1019D80006B010BDAFF3008000000000C0FFDF407C
:1019E8000000000000206C4030B587B00446002598
:1019F8006A463C202821ADF80050ADF80850ADF8F3
:101A08001050FFF7FDFDBDF9000007EE900AF8EE53
:101A1800E77A17EE900A02F0E5FB7BA3D3E90023EF
:101A280002F05EFD0B46024602F07EFA02F0F0FE7E
:101A380002AA20602A213C20FFF7E2FDBDF9080038
:101A480007EE900AF8EEE77A17EE900A02F0CAFB62
:101A58006DA3D3E9002302F043FD0B46024602F0D2
:101A680063FA02F0D5FE04AA60602C213C20FFF73F
:101A7800C7FDBDF9100007EE900AF8EEE77A17EEF9
:101A8800900A02F0AFFB60A3D3E9002302F028FD1F
:101A98000B46024602F048FA02F0BAFE6A46A06017
:101AA80008213C20ADF80050ADF80850ADF81050B2
:101AB800FFF7A6FDBDF9000007EE900AF8EEE77AF9
:101AC80017EE900A02F08EFB4FA3D3E9002302F031
:101AD80007FD514B002202F0D9FB02F099FE02AA41
:101AE800E0600A213C20FFF78BFDBDF9080007EEF6
:101AF800900AF8EEE77A17EE900A02F073FB42A319
:101B0800D3E9002302F0ECFC434B002202F0BEFBB9
:101B180002F07EFE04AA20610C213C20FFF770FD34
:101B2800BDF9100007EE900AF8EEE77A17EE900A72
:101B380002F058FB34A3D3E9002302F0D1FC364B62
:101B4800002202F0A3FB02F063FE6A4660612821CE
:101B5800D420ADF80050ADF80850ADF81050FFF79C
:101B68004FFDBDF9000007EE900AF8EEE77A17EE90
:101B7800900A02F037FB24A3D3E9002302F0B0FC5B
:101B880023A3D3E9002302F081FB02F041FE02AA5D
:101B9800A0612A21D420FFF733FDBDF9080007EE24
:101BA800900AF8EEE77A17EE900A02F01BFB16A3EC
:101BB800D3E9002302F094FC15A3D3E9002302F033
:101BC80065FB02F025FE04AAE0612C21D420FFF772
:101BD80017FDBDF9100007EE900AF8EEE77A17EE48
:101BE800900A02F0FFFA08A3D3E9002302F078FC78
:101BF80007A3D3E9002302F049FB02F009FE2062A3
:101C080007B030BDAFF3008000000000C0FFDF4028
:101C18000000000000206C400000104070B54FF438
:101C2800001086B01E4C1F4E012100F03BFC022024
:101C3800012100F013FC012502232046C022694639
:101C48008DF804308DF8053000928DF806508DF827
:101C5800075000F009FA20460621042200F0A2FAF3
:101C680020460721042200F09DFA0F4B02934FF4FF
:101C780080420023304602A94BF6FF74ADF80C30C1
:101C8800ADF81030ADF81230ADF81420ADF80E40B4
:101C980001F02CFB3046294601F0AAFB06B070BDC6
:101CA8000004024000540040A08601002DE9F843DA
:101CB8001E4C07460D461E484FF4006101F02CFCEF
:101CC80026681B481B4901F0BDFC236840B99B1BD3
:101CD8009D42F6D81848FFF797FB0020BDE8F88327
:101CE8009B1B9D42DFF84490F4D9114801F044FC55
:101CF800D9F8006080460E480E4901F0A3FC23681D
:101D080040B99B1B9D42F6D80C48FFF77DFB00208D
:101D1800BDE8F8839E1BB542F6D9054801F02CFCB6
:101D280048EA002038800120BDE8F883E008002058
:101D38000054004040000300345A0008545A000878
:101D480008B50348012101F06FFB012008BD00BF61
:101D58000054004070B503460B4C0C480D4619461C
:101D680001F008FC26680948094901F06BFC236862
:101D780038B9981B8542F6D8854294BF00200120C7
:101D880070BD981BF8E700BFE00800200054004031
:101D980084000700012A70B503460D4C08BF40F0C7
:101DA80080030D460B48194601F0E4FB26680948F4
:101DB800094901F047FC236838B9981B8542F6D8D1
:101DC800854294BF0020012070BD981BF8E700BF32
:101DD800E0080020005400408400070070B5034666
:101DE8000B4C0C480D460122194601F02BFB2668C6
:101DF8000848094901F026FC236838B9981B854230
:101E0800F6D8854294BF0020012070BD981BF8E7E2
:101E1800E0080020005400400200030070B50346AB
:101E28000B4C0C480D460022194601F00BFB2668A6
:101E38000848094901F006FC236838B9981B85420F
:101E4800F6D8854294BF0020012070BD981BF8E7A2
:101E5800E0080020005400408200070070B50B4CD9
:101E6800054601210A4801F0D1FA266808480949BF
:101E780001F0E8FB236838B9981B8542F6D88542FB
:101E880094BF0020012070BD981BF8E7E0080020EF
:101E9800005400400100030070B50B4C05460121B9
:101EA8000A4801F0B3FA26680848094901F0CAFB54
:101EB800236838B9981B8542F6D8854294BF00201C
:101EC800012070BD981BF8E7E0080020005400408E
:101ED80001000300F8B50A4C266807460D46094874
:101EE800394601F0AFFB236838B9981B8542F6D80C
:101EF800854294BF00200120F8BD981BF8E700BF79
:101F0800E00800200054004070B50A4C26680546D9
:101F180009484FF4003101F0A9FB236838B1981B38
:101F28008542F5D8854294BF0020012070BD981BDA
:101F3800F8E700BFE008002000540040034B1B688E
:101F4800181A884234BF002001207047E00800209A
:101F580008B53C4B984224D03B4B98422BD03B4B86
:101F6800984232D03A4B984239D03A4B984240D0B6
:101F7800394B984247D0394B98424ED0384B98420B
:101F880055D0384B984200D008BD4FF480700121DD
:101F980000F0A0FA4FF480700021BDE8084000F07E
:101FA80099BA0120014600F095FA01200021BDE808
:101FB800084000F08FBA0220012100F08BFA0220BD
:101FC8000021BDE8084000F085BA0420012100F096
:101FD80081FA04200021BDE8084000F07BBA0820FF
:101FE800012100F077FA08200021BDE8084000F040
:101FF80071BA1020012100F06DFA10200021BDE80F
:10200800084000F067BA2020012100F063FA202080
:102018000021BDE8084000F05DBA4020012100F031
:1020280059FA40200021BDE8084000F053BA80204A
:10203800012100F04FFA80200021BDE8084000F09F
:1020480049BA00BF000002400004024000080240F4
:10205800000C024000100240001402400018024028
:10206800001C02400020024000222DE9F007134620
:102078000E6801274FF0030804E00133102B02F12A
:1020880002022CD007FA03F404EA0605A542F4D1AB
:10209800D0F8009091F804C008FA02F4E44304EA86
:1020A8000909C0F80090D0F800900CFA02FA0CF177
:1020B800FF3C4AEA0909BCF1010FC0F8009011D9A8
:1020C800C56891F807C02C40C460C5680CFA02F4D2
:1020D80001332C43102BC46002F10202D2D1BDE8B7
:1020E800F0077047D0F808A091F8059091F806C05D
:1020F80004EA0A0AC0F808A0D0F808A009FA02F908
:1021080049EA0A09C0F80890D0F8049029EA0505B8
:10211800456045680CFA03FC1FFA8CFC4CEA05057F
:102128004560CDE700234FF6FF72026003714371EB
:102138008371C371704700BF82B04FF4803301933D
:10214800019B0B430193019BC361C161019BC36167
:10215800C3690193C369019302B0704703691942C7
:102168000CBF002001207047006980B2704700BF93
:10217800436919420CBF002001207047406980B2B2
:10218800704700BF01837047418370470AB9418394
:1021980070470183704700BF4161704743695940E8
:1021A80041617047CB0800EB830001F0070110B4D0
:1021B8008900046A0F238B4024EA03030362036A3D
:1021C8005DF8044B8A401343036270470A4B0B487F
:1021D8001A68002142F001021A6099601A6822F018
:1021E800847222F480321A6058601A6822F48022BD
:1021F8001A60D960704700BF0038024010300024D0
:10220800024B00221A701870704700BF0238024053
:1022180082B000230B4A019313689B030CD4019BE3
:1022280001330193019BB3F5A06FF5D1054B1868F5
:10223800C0F3404002B07047019B01330193019BFA
:10224800F4E700BF00380240034B1A6822F0F80296
:1022580042EAC0001860704700380240014B18601D
:10226800704700BF00004742064B002201281A7041
:102278001A7005D0042802D105221A7070477047D9
:102288001870704770380240014B1860704700BFE3
:10229800800E474230B4029C064D40EA04605B0859
:1022A8000143013B41EA821242EA03436B6030BCBE
:1022B800704700BF00380240014B1860704700BFEC
:1022C800600047420907034B41EA8010C3F88400C5
:1022D800704700BF00380240014B1860704700BFCC
:1022E80068004742014B1860704700BF4C004742E6
:1022F800034B9A6822F0EC621143084398607047D8
:1023080000380240034B9A6822F078421143084390
:102318009860704700380240034B9A6822F0030225
:1023280010439860704700BF00380240024B98681D
:1023380000F00C00704700BF00380240034B9A6859
:1023480022F0F00210439860704700BF0038024046
:10235800034B9A6822F4E05210439860704700BF1C
:1023680000380240034B9A6822F4604242EAC000F7
:1023780098607047003802401F4A936803F00C03C6
:10238800042B10B41BD0082B1CD01C4B03601A491B
:102398001B4A8C68C4F30314145DE34043608C68E3
:1023A800C4F38224145D23FA04F4846089685DF818
:1023B800044BC1F34231525CD340C3607047114BA8
:1023C8000360E4E754685168526863024CBF0D4BE0
:1023D8000A4B01F03F01C2F38812B3FBF1F303FB90
:1023E80002F3054A5268C2F3014201325200B3FBBC
:1023F800F2F30360CBE700BF003802400024F4008A
:102408001C00002000127A0000F44073B3F5407FEE
:1024180009D1084A916820F0704321F4F81123F497
:1024280040730B439360034B1A6FC0F30B001043C8
:102438001867704700380240014B1860704700BFAA
:102448003C0E4742014B1860704700BF400E4742A0
:10245800014B1860704700BF5C014742044B1A6B80
:1024680019B922EA000018637047104318637047CF
:1024780000380240044B5A6B19B922EA000058632D
:10248800704710435863704700380240044B9A6BFA
:1024980019B922EA0000986370471043986370479F
:1024A80000380240044B1A6C19B922EA000018647B
:1024B800704710431864704700380240044B5A6C48
:1024C80019B922EA000058647047104358647047ED
:1024D80000380240044B1A6919B922EA0000186151
:1024E800704710431861704700380240044B5A691E
:1024F80019B922EA000058617047104358617047C3
:1025080000380240044B9A6919B922EA0000986120
:10251800704710439861704700380240044B1A6AAC
:1025280019B922EA00001862704710431862704710
:1025380000380240044B5A6A19B922EA000058626E
:10254800704710435862704700380240044B1A6DB8
:1025580019B922EA000018657047104318657047DA
:1025680000380240044B5A6D19B922EA0000586538
:10257800704710435865704700380240044B9A6D05
:1025880019B922EA000098657047104398657047AA
:1025980000380240044B1A6E19B922EA0000186686
:1025A800704710431866704700380240044B5A6E53
:1025B80019B922EA000058667047104358667047F8
:1025C80000380240044B1A7819B922EA0000187042
:1025D80070471043187070470D3802404309012BAB
:1025E8000BD0022B094B0CBF1B6F5B6F00F01F0059
:1025F80023FA00F000F001007047044B1B6800F05C
:102608001F0023FA00F000F0010070470038024074
:10261800024B5A6F42F080725A6770470038024086
:10262800034BDB6818420CBF00200120704700BF35
:1026380000380240014B1870704700BF0E38024046
:1026480008B52B4B984219D02A4B984220D02A4BD8
:10265800984229D0294B984232D0294B98423BD0F6
:10266800284B984200D008BD20200121FFF762FFC7
:1026780020200021BDE80840FFF75CBF10200121A1
:10268800FFF758FF10200021BDE80840FFF752BFB0
:102698004FF400300121FFF741FF4FF400300021D3
:1026A800BDE80840FFF73ABF4FF480200121FFF74B
:1026B80035FF4FF480200021BDE80840FFF72EBF0A
:1026C8004FF400200121FFF729FF4FF400200021DB
:1026D800BDE80840FFF722BF4FF480100121FFF743
:1026E8001DFF4FF480100021BDE80840FFF716BF1A
:1026F800001001400044004000480040004C0040E9
:102708000050004000140140F0B50D46018AEF88E2
:102718002E89AB88AA8989B2044621F440513943ED
:1027280068892182A189334389B2034321F4B051D6
:1027380021F00C019BB20B43A381A38A9BB223F423
:102748004073134385B0A3826846FFF715FE1D4BFF
:102758009C4229D003F580639C4225D0029BA28924
:102768002968A08912B2002A03EB8303B4BF490089
:10277800890003EB8303B3FBF1F2134900B2A1FB19
:1027880002535B096425002803FB15224FEA031353
:102798000CDB12013232A1FB0251C1F343110B438E
:1027A8009BB2238105B0F0BD039BD8E7D20032323B
:1027B800A1FB0201C1F342110B439BB2238105B077
:1027C800F0BD00BF001001401F85EB5100234FF4FE
:1027D80016510C22016042818380C380038183816A
:1027E800704700BF30B40A884D888C88038AC9882E
:1027F8002A4322430A439BB292B223F470631343E1
:10280800038230BC704700BF00230380438083806D
:10281800C3807047838929B923F400531B041B0C18
:10282800838170479BB243F400538381704700BF94
:10283800038B03F47F430383038B9BB21943018308
:10284800704700BF838919B9C3F30E0383817047AA
:102858006FEA43436FEA53439BB28381704700BFDB
:10286800838A29B923F400631B041B0C83827047F5
:102878009BB243F400638382704700BFC1F3080131
:10288800818070478088C0F308007047038A23F06E
:102898000F031B041B0C0382038A9BB2194301829A
:1028A800704700BF838929B923F002031B041B0C5E
:1028B800838170479BB243F002038381704700BF56
:1028C800838923F400631B041B0C838183899BB2D7
:1028D80019438181704700BF038A23F020031B043A
:1028E8001B0C0382038A9BB219430182704700BF05
:1028F800038A29B923F480431B041B0C0382704705
:102908009BB243F480430382704700BF83899BB224
:1029180043F0010383817047838A29B923F00803B0
:102928001B041B0C838270479BB243F0080383820D
:10293800704700BF038BDBB20383038B9BB243EA70
:1029480001210183704700BF838A29B923F020033E
:102958001B041B0C838270479BB243F020038382C5
:10296800704700BF838A29B923F010031B041B0C8E
:10297800838270479BB243F010038382704700BF85
:10298800838A23F004031B041B0C8382838A9BB273
:1029980019438182704700BF838A29B923F0020353
:1029A8001B041B0C838270479BB243F00203838293
:1029B800704700BF838A9BB21AB923EA010181825A
:1029C800704719438182704701F01F0310B4C1F3A7
:1029D80042110124A14204FA03F310D002290CBFCA
:1029E8001030143004682AB924EA030303605DF840
:1029F800044B7047234303605DF8044B70470C3069
:102A0800F0E700BF038819420CBF0020012070477F
:102A1800C94389B20180704710B4C1F3421301243D
:102A280001F01F02A34204FA02F217D0022B0CBFD6
:102A3800038A838A9BB21340028892B253B1090A6F
:102A4800012303FA01F111420CBF002001205DF8B7
:102A5800044B704718465DF8044B704783899BB256
:102A68001340E9E7090A012303FA01F1C94389B2CE
:102A78000180704710B4374A0468002324F0010429
:102A8800212190420460036043608360C360036156
:102A980041614DD0304B984235D0304B984239D0B7
:102AA8002F4B98423DD02F4B984247D02E4B9842FF
:102AB80048D02E4B98421DD02D4B98421ED02D4BFE
:102AC800984243D02C4B98421DD02C4B984221D091
:102AD8002B4B984225D02B4B98422FD02A4B98420B
:102AE80030D02A4B984205D0294B984206D05DF841
:102AF800044B7047274A43F8942CF8E74FF03D52AF
:102B080043F8AC2CF3E74FF4746243F8202C5DF8DB
:102B1800044B70474FF4741243F8382C5DF8044B9B
:102B280070474FF0746243F8502C5DF8044B7047BF
:102B3800194B5DF8044B3D229A607047174A43F8D9
:102B4800642CD4E7164A43F87C2CD0E73D2243F89E
:102B5800082CCCE710600240286002404060024028
:102B6800586002407060024088600240A0600240E5
:102B7800B860024010640240286402404064024089
:102B8800586402407064024088640240A0640240B5
:102B9800B864024000003D20006002403D00002073
:102BA800400F0020CA680B68D0F800C02DE9F00774
:102BB8004F698E69CD690C6AD1F83490D1F83880A4
:102BC80042EA030A4AEA07073E434B6A4F6835431D
:102BD8002C4344EA03028B6A0D4ECC6A0D691A43F2
:102BE80042EA090949EA08080CEA060648EA06061C
:102BF8000B6B896806604269234322F0070213437E
:102C0800436145608760C160BDE8F007704700BF59
:102C18003F801CF00023036043608360C36003614E
:102C280043618361C361036243628362C362036376
:102C380043638363704700BF036819B923F0010336
:102C48000360704743F0010303607047036819B9D4
:102C580023F400430360704743F400430360704764
:102C6800036819B923F020030360704743F0200379
:102C78000360704741607047406880B2704700BF8A
:102C8800036822B923F4002303600161704743F409
:102C98000023036001617047036819B923F4802396
:102CA8000360704743F48023036070470AB9C1602A
:102CB80070470161704700BF0068C0F3C0407047AB
:102CC800006800F001007047406900F03800704764
:102CD8000B4B0C4A10B40C4CA0428CBF1046184643
:102CE8008B004CBF436803685DF8044B21F0F0216A
:102CF80021F0821119420CBF00200120704700BF4B
:102D080000600240006402400F64024010B4094AA7
:102D1800094C0A4BA0428CBF1046184611F0005FC0
:102D280021F0F02121F0821114BFC16081605DF8AB
:102D3800044B7047006402400F6402400060024088
:102D48000B060CD54369AAB143F08003802943617F
:102D58000FD0036801F01E011943016070478029F4
:102D680007D0002AF5D1036801F01E0123EA01010A
:102D78000160704723F0800380294361F3D17047D5
:102D880070B4114A114D124C21F0F02323F0C316F0
:102D9800A84288BF224696B1046804F01E0404EADB
:102DA800D12489004CBF5268126823F0821313EAB9
:102DB800020002D0201C18BF012070BC7047446973
:102DC80004F08004EDE700BF006002400F64024099
:102DD8000064024010B4094A094C0A4BA0428CBF57
:102DE8001046184611F0005F21F0F02121F0821101
:102DF80014BFC16081605DF8044B704700640240F5
:102E08000F6402400060024008B54FF400600121E1
:102E1800FFF790FB4FF400600021BDE80840FFF782
:102E280089BB00BFF0B40B4A8768D0F804C0C668F5
:102E380005680469017D53684CEA0700304328435C
:102E480023F4FD43204323F07F0303430B435360E4
:102E5800F0BC7047002C01400023037503604360F9
:102E68008360C36003617047014B1860704700BFFF
:102E7800A0802542014B1860704700BF002C01401C
:102E8800024B186800F00300704700BF002C014097
:102E9800094B026830B49A6085684168C468DA688A
:102EA80000692943214322F4FF62014322F007020B
:102EB8000A43DA6030BC7047002C014000230360ED
:102EC80043608360C3600361704700BF014B1869AA
:102ED800C0B27047002C0140044B82B0034400226A
:102EE80001920193019B186802B07047142C0140AD
:102EF800094B026830B45A6242689A62C5688268AF
:102F08000469D96A40692A432243024321F0F70140
:102F18000A43DA6230BC7047002C014000234FF0AE
:102F2800FF3280E80C008360C3600361436170472F
:102F3800014B186B704700BF002C0140014BD3F8C0
:102F480080007047002C0140014BC3F88000704797
:102F5800002C0140014B986C704700BF002C0140C9
:102F6800014B1860704700BFA0852542014B1860CF
:102F7800704700BFA4852542014B1860704700BF09
:102F8800A8852542014B1860704700BFAC852542D3
:102F9800014B1860704700BFAC812542014B186097
:102FA800704700BFB081254200F00100024B80F05D
:102FB80001001860704700BFB4812542014B1860BA
:102FC800704700BFB8812542014B1860704700BFA9
:102FD8008C852542044BDA6B19B922EA0000D863C4
:102FE80070471043D8637047002C0140034B5B6B5C
:102FF80018420CBF00200120704700BF002C014080
:10300800014B9863704700BF002C0140034B5B6B7A
:1030180018420CBF00200120704700BF002C01405F
:10302800014B9863704700BF002C014008B54FF46E
:1030380080400121FFF77EFA4FF480400021BDE86F
:103048000840FFF777BA00BF014B1860704700BF10
:103058000038014001F0FC0303F1804303F59C3381
:1030680001F0030110B489009C680F228A4024EA09
:1030780002029A609A685DF8044B884002439A609D
:10308800704700BF014B1860704700BFDC00274243
:10309800014B1860704700BF00042742024B186AB2
:1030A800C0F30020704700BF00380140044B0549B9
:1030B80000221A605A609A60DA605961704700BF4E
:1030C800003C0140FFFF7F00837970B42BB31D4B98
:1030D80001681E6802794579CC4326401E605E6807
:1030E80002F1804202F59E3234405C60146821434C
:1030F800116002689868D14308409860D868102D1C
:1031080001EA0001D96014D005F1804303F59E332C
:1031180070BC19680A431A6070470379016803F1A3
:10312800804303F59E3370BC1A6822EA01021A60D4
:103138007047996811439960D9680A43DA6070BC8E
:10314800704700BF003C014000230C22427103601D
:1031580003718371704700BF024B1A6910431861ED
:10316800704700BF003C0140034B5B6918420CBF2D
:1031780000200120704700BF003C0140014B58610E
:10318800704700BF003C0140054B1A685B6903406B
:1031980004D010420CBF0020012070471846704729
:1031A800003C0140014B5861704700BF003C0140A2
:1031B80040F0BF60024B40F40030D860704700BF59
:1031C80000ED00E0C378F0B463B90378194A5909EF
:1031D800203103F01F03012000FA03F342F82130E5
:1031E800F0BC7047144B4778DA6885780378114942
:1031F800D243C2F30222C2F104040F26E4B207FA52
:1032080004F446FA02F2E4B22A40224303F160438E
:1032180003F561431201D2B283F800230378012039
:1032280003F01F025B0900FA02F241F82320F0BC08
:10323800704700BF00E100E000ED00E021F06041D0
:1032480021F07F01014B08439860704700ED00E0D2
:10325800044B1A6919B922EA000018617047104333
:103268001861704700ED00E0044B1A6804280CBF91
:1032780042F0040222F004021A60704710E000E0F5
:1032880008B5174B984212D0164B98421BD0164BD4
:10329800984200D008BD4FF400000121FFF73EF925
:1032A8004FF400000021BDE80840FFF737B94FF49C
:1032B80000100121FFF732F94FF400100021BDE89A
:1032C8000840FFF72BB94FF480000121FFF726F9DA
:1032D8004FF480000021BDE80840FFF71FB900BF88
:1032E8000054004000580040005C0040F0B504461F
:1032F80085B068460D46A688FFF73EF80299304823
:103308002A68DFF8C4C0A0FB013026F03F06360467
:10331800800C360C87B23E43A680238823F0010335
:103328001B041B0C6245238023D85300B1FBF3F325
:103338009BB2032B07F1010798BF04232784A383BB
:1033480023886E89A8882989AA899BB243F001033A
:103358002380238823F4816323F002031B04304372
:103368001B0C03430A439BB292B22380228105B00F
:10337800F0BDEE884BF6FF739E421AD002EB820234
:1033880002EB8202B1FBF2F39BB243F48043C3F336
:103398000B020AB943F001034FF49671094A01FB85
:1033A80000F082FB00108009013043F400432084C0
:1033B800C5E702EB4202B1FBF2F39BB2E7E700BFBD
:1033C80083DE1B43D34D6210A0860100002310B496
:1033D8004BF6FF7141F288344FF480420460C1809B
:1033E80082818380038143815DF8044B704700BF6D
:1033F800038829B923F001031B041B0C03807047C1
:103408009BB243F001030380704700BF038829B9CA
:1034180023F480731B041B0C038070479BB243F496
:1034280080730380704700BF038829B923F40073B1
:103438001B041B0C038070479BB243F4007303808A
:10344800704700BF1AB901F0FE010182704741F0D0
:1034580001010182704700BF038829B923F4806302
:103468001B041B0C038070479BB243F480630380EA
:10347800704700BF83899BB201F0FE0123F0FE0371
:1034880019438181704700BF838929B923F001035B
:103498001B041B0C838170479BB243F0010383819B
:1034A800704700BF038829B923F040031B041B0C95
:1034B800038070479BB243F040030380704700BF0E
:1034C800038819B9C3F30E03038070476FEA4343B7
:1034D8006FEA53439BB20380704700BF038829B14A
:1034E80023F080031B041B0C038070479BB243F03E
:1034F80080030380704700BFB1F5804F838B05D0F0
:1035080023F480431B041B0C838370479BB243F452
:1035180080438383704700BFB1F5006F038805D0EF
:1035280023F400631B041B0C038070479BB243F415
:1035380000630380704700BFB1F5005F038805D0C2
:1035480023F400531B041B0C038070479BB243F405
:1035580000530380704700BF038829B923F0100384
:103568001B041B0C038070479BB243F010030380BD
:10357800704700BF01827047008AC0B2704700BF21
:10358800038829B923F480531B041B0C038070475C
:103598009BB243F480530380704700BFB1F5006FBE
:1035A800038805D023F400631B041B0C03807047B9
:1035B8009BB243F400630380704700BF038829B9B6
:1035C80023F020031B041B0C038070479BB243F0BD
:1035D80020030380704700BF008BC0F307207047AB
:1035E800838829B923F400631B041B0C838070476C
:1035F8009BB243F400638380704700BF838829B976
:1036080023F480531B041B0C838070479BB243F444
:1036180080538380704700BF82B0002301930190DC
:10362800019B19440191019B188880B202B0704730
:1036380083889BB21AB923EA010181807047194334
:1036480081807047828A038B90B240EA034021F060
:103658007F4318400B1A584258417047828A038B9F
:1036680090B240EA034020F07F40704782B00023C8
:103678000A0F0093019301900092009B21F07F4173
:1036880053B1019B14330193019B1B6819420CBF72
:103698000020012002B07047019B1833090C0193E8
:1036A800F2E700BFC94389B2818270478388808A64
:1036B80080B208409BB206D001F0E06113EA1141E4
:1036C8000CBF002001207047C94389B2818270472E
:1036D80008B5174B984212D0164B98421BD0164B80
:1036E800984200D008BD4FF400400121FEF716FFB4
:1036F8004FF400400021BDE80840FEF70FBF4FF42B
:1037080080500121FEF716FF4FF480500021BDE8DC
:103718000840FEF70FBF4FF480400121FEF7FEFE80
:103728004FF480400021BDE80840FEF7F7BE00BF17
:103738000030014000380040003C00402DE9F0070F
:10374800B1F802A0B1F80090B1F804800F894E8951
:103758008D89CC89B1F806C00A8A03884AEA09012A
:1037680041EA080141EA0C01394331432943214325
:1037780003F441530B439BB20380838B23F4006310
:103788001B041B0C8383BDE8F0070282704700BF4F
:10379800838B8A6823F47B6323F00F031B042DE9D2
:1037A800F0071B0C022483830484B0F81CC0A242D7
:1037B8001FFA8CFC4FD02E4B8C889D68002C0CBFB8
:1037C8004FF020094FF040092D023FD4284B294FD4
:1037D800D3F88450D3F88460D3F804A0CB880AF0D7
:1037E8003F0AC5F38818B7FBFAF7C6F3027608FB59
:1037F80007F7B3F5007FB7FBF6F62FD0B6FBF9F560
:1038080005EB85056D00B5FBF2F2053292B21A4D53
:10381800A5FB0262D2085508AE1E02F00102FD2E79
:1038280094BF45EA022202220F884E888D894CEA0D
:10383800070141F4006131432943134389B20C4322
:103848009BB203848483BDE8F00770479D6825F424
:1038580000059D60BAE78C88CB88E5E7360A06EB59
:1038680086067600B6FBF2F2053292B2CFE700BFC9
:103878000038024000127A00CDCCCCCC00230722BD
:103888000282038043808380C380038143818381D4
:10389800C3817047002302228260036043608381F2
:1038A800704700BF038829B923F040031B041B0C91
:1038B800038070479BB243F040030380704700BF0A
:1038C800838B29B923F480631B041B0C8383704703
:1038D8009BB243F480638383704700BF038823F45B
:1038E80000631B041B0C038003889BB219430180EF
:1038F800704700BFB1F5804F038805D023F480439B
:103908001B041B0C038070479BB243F48043038065
:10391800704700BF4FF6FF639942038804D09BB2FB
:1039280043F480730380704723F480731B041B0CDB
:1039380003807047838829B923F004031B041B0CF8
:10394800838070479BB243F004038380704700BFB5
:10395800838829B923F010031B041B0C838070474C
:103968009BB243F010038380704700BF838B23F41E
:103978007B6323F00F031B0402221B0C8383028446
:10398800838B0A8830B44D888C8889899BB22B43F5
:1039980043F4006322F40072234392B20B43002ADB
:1039A8009BB214BF00224FF480721343838330BC50
:1039B800704700BF808980B2704700BF818170471F
:1039C800038829B923F400531B041B0C0380704798
:1039D8009BB243F400530380704700BF03889BB237
:1039E80043F4805303807047012914BF008B808AF9
:1039F80080B27047008A80B2704700BF83889BB24C
:103A08001AB923EA01018180704719438180704700
:103A18000123090903FA01F1838889B29BB21AB913
:103A280023EA01018180704719438180704700BFF4
:103A3800038919420CBF002001207047C94389B28D
:103A48000181704710B48488008901F00F030122B6
:103A580080B202FA03F31840A4B205D009098A40DB
:103A680014420CBF002001205DF8044B704700BFD2
:103A780001F00F01012303FA01F1C94389B2018161
:103A8800704700BF30B50F4D044683B055F820008D
:103A9800012105EB4405FEF7E1FC0B4A2B8A52F89D
:103AA8002400009302220123002469468DF8043083
:103AB8008DF807308DF806408DF80520FEF7D4FA0A
:103AC80003B030BD7C5700082C000020044A054B89
:103AD80002EB400253F82030128A1A83704700BF65
:103AE8007C5700082C000020044A054B02EB4002DA
:103AF80053F82030128A5A83704700BF7C57000859
:103B08002C000020054A064B53F8203002EB4000F9
:103B18005A69018A4A405A61704700BF7C570008B9
:103B28002C00002030B50446012087B00D46014620
:103B3800FEF794FC4FF480400121FEF7BFFC06AB72
:103B48001849012201EB840443F8102D2069194615
:103B580000248DF80C408DF80F40FEF785FA012DF2
:103B680001D007B030BD21462046FFF773FA08237D
:103B780004A88DF8153004958DF814408DF816506A
:103B8800FFF7A2FA0F23062201A88DF807508DF837
:103B980004208DF805308DF80630FFF713FB07B0C9
:103BA80030BD00BF2C00002008B5044B03EB80009B
:103BB80001210069FEF7D2FA08BD00BF2C000020E1
:103BC8002DE9F041224D84002E190746336AB06969
:103BD80082B0184388460121FEF740FCB06A0121F3
:103BE800FEF76CFC1B4B05EB47051C44298E6069EE
:103BF80095F83420FEF7D6FA95F83C20E069298F2D
:103C0800FEF7D0FAB5F84030606900930226012724
:103C1800694600238DF806308DF807708DF804602A
:103C28008DF80560FEF720FAB5F84430E069009396
:103C380069468DF80460FEF717FA4146606AFEF798
:103C480063FD606A3946FEF7E5FD02B0BDE8F08124
:103C58007C5700082C00002030B5002083B0234C8E
:103C6800234DFFF701F90020FFF704F9FFF7CCF81F
:103C78004FF400600021FEF721FC204608210022B5
:103C8800FEF790FA204609210022FEF78BFA20461B
:103C98000A210022FEF786FA20460B210022FEF7B1
:103CA80081FA20460C210022FEF77CFA28460221E0
:103CB8000022FEF777FA4FF4706200232046694627
:103CC80000928DF804308DF80730FEF7CDF92846BC
:103CD800694604230093FEF7C7F94FF48053204642
:103CE80069460093FEF7C0F903B030BD00080240F2
:103CF800000C0240F0B52E4C2E4F83B00E2001214F
:103D0800FEF7ACFB204608210C22FEF74BFA2046B2
:103D180009210C22FEF746FA20460A210C22FEF75A
:103D280041FA20460B210C22FEF73CFA0C212046D2
:103D38000A46FEF737FA384602210C22FEF732FA15
:103D480001254FF47062002620466946022300923E
:103D58008DF804308DF805508DF807508DF8066001
:103D6800FEF782F93846694604230093FEF77CF98A
:103D7800204669464FF4805300938DF80760FEF79C
:103D880073F94FF4004369460B4800938DF80460BB
:103D98008DF80750FEF768F929464FF40060FEF7E2
:103DA8008DFB29464FF48000FEF758FB03B0F0BDA9
:103DB80000080240000C0240000402402DE9F04FC8
:103DC800264CDFF89CA091B005464FF0FA512046EA
:103DD800FEF79CFF20460021FEF72EFF2046FEF747
:103DE80049FE04274FF0006100234FF4804C4FF444
:103DF800403E204603954FF4001201914FF0400BCE
:103E08000DEB07014FF480694FF4805803264FF4F7
:103E18000005059306930A93CDF824C0CDF82CE04D
:103E28000F92CDF808A0CDF810B0CDF81C90CDF8C1
:103E380020800C970D960E95FEF7B4FE01222046C1
:103E48001021FEF77DFF20462021FEF709FF2046BE
:103E58000121FEF7F1FE11B0BDE8F08F5864024071
:103E6800802C01402DE9F04F254CDFF8989091B057
:103E780005464FF0FA512046FEF748FF204600213C
:103E8800FEF7DAFE04272046FEF7F4FD4FF0006A3D
:103E980000234FF4804C4FF4403E204603954FF4E6
:103EA80000120DEB07014FF4806B4FF48058032686
:103EB8004FF400050493059306930A93CDF824C0A4
:103EC800CDF82CE00F92CDF804A0CDF80890CDF8ED
:103ED8001CB0CDF820800C970D960E95FEF762FE6B
:103EE800012220461021FEF72BFF20462021FEF755
:103EF800B7FE20460121FEF79FFE11B0BDE8F08F06
:103F080058640240802C0140B45A00080000002088
:103F18009C080020A00800202C09002081F0004106
:103F280002E000BF83F0004330B54FEA41044FEA96
:103F3800430594EA050F08BF90EA020F1FBF54EA31
:103F4800000C55EA020C7FEA645C7FEA655C00F0CD
:103F5800E2804FEA5454D4EB5555B8BF6D420CDD9E
:103F68002C4480EA020281EA030382EA000083EA21
:103F7800010180EA020281EA0303362D88BF30BDC1
:103F880011F0004F4FEA01314FF4801C4CEA113117
:103F980002D0404261EB410113F0004F4FEA033376
:103FA8004CEA133302D0524263EB430394EA050F01
:103FB80000F0A780A4F10104D5F1200E0DDB02FA70
:103FC8000EFC22FA05F2801841F1000103FA0EF204
:103FD800801843FA05F359410EE0A5F120050EF1CA
:103FE800200E012A03FA0EFC28BF4CF0020C43FAFB
:103FF80005F3C01851EBE37101F0004507D54FF008
:10400800000EDCF1000C7EEB00006EEB0101B1F557
:10401800801F1BD3B1F5001F0CD349085FEA30009D
:104028004FEA3C0C04F101044FEA445212F5800FA8
:1040380080F09A80BCF1004F08BF5FEA500C50F145
:10404800000041EB045141EA050130BD5FEA4C0C28
:10405800404141EB010111F4801FA4F10104E9D1B1
:1040680091F0000F04BF01460020B1FA81F308BFA8
:104078002033A3F10B03B3F120020CDA0C3208DD74
:1040880002F1140CC2F10C0201FA0CF021FA02F14F
:104098000CE002F11402D8BFC2F1200C01FA02F1BF
:1040A80020FA0CFCDCBF41EA0C019040E41AA2BFE4
:1040B80001EB0451294330BD6FEA04041F3C1CDAAC
:1040C8000C340EDC04F11404C4F1200220FA04F0CC
:1040D80001FA02F340EA030021FA04F345EA030176
:1040E80030BDC4F10C04C4F1200220FA02F001FA38
:1040F80004F340EA0300294630BD21FA04F02946BA
:1041080030BD94F0000F83F4801306BF81F4801152
:104118000134013D4EE77FEA645C18BF7FEA655CC5
:1041280029D094EA050F08BF90EA020F05D054EA97
:10413800000C04BF1946104630BD91EA030F1EBF9C
:104148000021002030BD5FEA545C05D140004941A0
:1041580028BF41F0004130BD14F580043CBF01F593
:10416800801130BD01F0004545F0FE4141F4700179
:104178004FF0000030BD7FEA645C1ABF1946104654
:104188007FEA655C1CBF0B46024650EA013406BF55
:1041980052EA033591EA030F41F4002130BD00BF14
:1041A80090F0000F04BF0021704730B54FF48064D1
:1041B80004F132044FF000054FF0000150E700BF52
:1041C80090F0000F04BF0021704730B54FF48064B1
:1041D80004F1320410F0004548BF40424FF000019E
:1041E8003EE700BF42004FEAE2014FEA31014FEAE1
:1041F80002701FBF12F07F4393F07F4F81F0605130
:10420800704792F0000F14BF93F07F4F704730B59E
:104218004FF4607401F0004521F0004120E700BF31
:1042280050EA010208BF704730B54FF000050AE0B8
:1042380050EA010208BF704730B511F0004502D5B9
:10424800404261EB41014FF4806404F132045FEABB
:10425800915C3FF4DCAE4FF003025FEADC0C18BF60
:1042680003325FEADC0C18BF033202EBDC02C2F156
:10427800200300FA03FC20FA02F001FA03FE40EAE8
:104288000E0021FA02F11444C1E600BF70B54FF0E8
:10429800FF0C4CF4E06C1CEA11541DBF1CEA1355CA
:1042A80094EA0C0F95EA0C0F00F0DEF82C4481EA32
:1042B800030621EA4C5123EA4C5350EA013518BF52
:1042C80052EA033541F4801143F4801338D0A0FB3F
:1042D80002CE4FF00005E1FB02E506F00042E0FBEC
:1042E80003E54FF00006E1FB03569CF0000F18BFF2
:1042F8004EF0010EA4F1FF04B6F5007F64F540749A
:1043080004D25FEA4E0E6D4146EB060642EAC6212C
:1043180041EA55514FEAC52040EA5E504FEACE2E99
:10432800B4F1FD0C88BFBCF5E06F1ED8BEF1004F9C
:1043380008BF5FEA500E50F1000041EB045170BD18
:1043480006F0004646EA010140EA020081EA03015C
:10435800B4EB5C04C2BFD4EB0C0541EA045170BD58
:1043680041F480114FF0000E013C00F3AB8014F1D2
:10437800360FDEBF002001F0004170BDC4F100041B
:10438800203C35DA0C341BDC04F11404C4F120059C
:1043980000FA05F320FA04F001FA05F240EA0200F7
:1043A80001F0004221F0004110EBD37021FA04F62D
:1043B80042EB06015EEA430E08BF20EAD37070BDE7
:1043C800C4F10C04C4F1200500FA04F320FA05F046
:1043D80001FA04F240EA020001F0004110EBD37048
:1043E80041F100015EEA430E08BF20EAD37070BDB8
:1043F800C4F1200500FA05F24EEA020E20FA04F391
:1044080001FA05F243EA020321FA04F001F000413F
:1044180021FA04F220EA020000EBD3705EEA430EB0
:1044280008BF20EAD37070BD94F0000F0FD101F0DF
:104438000046400041EB010111F4801F08BF013C18
:10444800F7D041EA060195F0000F18BF704703F056
:104458000046520043EB030313F4801F08BF013DDD
:10446800F7D043EA0603704794EA0C0F0CEA135599
:1044780018BF95EA0C0F0CD050EA410618BF52EA53
:104488004306D1D181EA030101F000414FF0000059
:1044980070BD50EA410606BF1046194652EA430667
:1044A80019D094EA0C0F02D150EA013613D195EADB
:1044B8000C0F05D152EA03361CBF104619460AD123
:1044C80081EA030101F0004141F0FE4141F470012D
:1044D8004FF0000070BD41F0FE4141F4780170BD1D
:1044E80070B54FF0FF0C4CF4E06C1CEA11541DBF82
:1044F8001CEA135594EA0C0F95EA0C0F00F0A7F884
:10450800A4EB050481EA030E52EA03354FEA0131B0
:1045180000F088804FEA03334FF0805545EA1313C3
:1045280043EA12634FEA022245EA111545EA10658B
:104538004FEA00260EF000419D4208BF964244F122
:10454800FD0404F5407402D25B084FEA3202B61A41
:1045580065EB03055B084FEA32024FF480104FF415
:10456800002CB6EB020E75EB030E22BFB61A754689
:1045780040EA0C005B084FEA3202B6EB020E75EB1C
:10458800030E22BFB61A754640EA5C005B084FEA84
:104598003202B6EB020E75EB030E22BFB61A754651
:1045A80040EA9C005B084FEA3202B6EB020E75EB5C
:1045B800030E22BFB61A754640EADC0055EA060E1D
:1045C80018D04FEA051545EA16754FEA06164FEA60
:1045D800C30343EA52734FEAC2025FEA1C1CC0D10C
:1045E80011F4801F0BD141EA00014FF000004FF099
:1045F800004CB6E711F4801F04BF01430020B4F15A
:10460800FD0C88BFBCF5E06F3FF6AFAEB5EB030C11
:1046180004BFB6EB020C5FEA500C50F1000041EB0E
:10462800045170BD0EF0004E4EEA113114EB5C04DB
:10463800C2BFD4EB0C0541EA045170BD41F48011AE
:104648004FF0000E013C90E645EA060E8DE60CEAB6
:10465800135594EA0C0F08BF95EA0C0F3FF43BAFD3
:1046680094EA0C0F0AD150EA01347FF434AF95EA8A
:104678000C0F7FF425AF104619462CE795EA0C0F6E
:1046880006D152EA03353FF4FDAE1046194622E73B
:1046980050EA410618BF52EA43067FF4C5AE50EA15
:1046A80041047FF40DAF52EA43057FF4EBAE12E705
:1046B8004FF0FF3C06E000BF4FF0010C02E000BFE6
:1046C8004FF0010C4DF804CD4FEA410C7FEA6C5CC9
:1046D8004FEA430C18BF7FEA6C5C1BD001B050EA6C
:1046E800410C0CBF52EA430C91EA030F02BF90EA57
:1046F800020F0020704710F1000F91EA030F58BF16
:10470800994208BF90422CBFD8176FEAE37040F077
:10471800010070474FEA410C7FEA6C5C02D150EA15
:10472800013C07D14FEA430C7FEA6C5CD6D152EAD0
:10473800033CD3D05DF8040B704700BF8446104695
:1047480062468C461946634600E000BF01B5FFF794
:10475800B7FF002848BF10F1000F01BD4DF808ED64
:10476800FFF7F4FF0CBF012000205DF808FB00BF35
:104778004DF808EDFFF7EAFF34BF012000205DF88F
:1047880008FB00BF4DF808EDFFF7E0FF94BF0120DC
:1047980000205DF808FB00BF4DF808EDFFF7CEFFDD
:1047A80094BF012000205DF808FB00BF4DF808ED1C
:1047B800FFF7C4FF34BF012000205DF808FB00BFED
:1047C8004FEA410212F5001215D211D56FF4787331
:1047D800B3EB625212D94FEAC12343F0004343EAD4
:1047E800505311F0004F23FA02F018BF40427047AF
:1047F8004FF00000704750EA013005D111F0004039
:1048080008BF6FF0004070474FF00000704700BFCE
:104818004FEA4102B2F1E04324BFB3F5001CDCF1DA
:10482800FE5C0DD901F0004C4FEAC0024CEA507012
:10483800B2F1004F40EB830008BF20F00100704741
:1048480011F0804F21D113F13872BCBF01F0004044
:10485800704741F480114FEA5252C2F11802C2F176
:10486800200C10FA0CF320FA02F018BF40F00100F7
:104878004FEAC1234FEAD32303FA0CFC40EA0C00A9
:1048880023FA02F34FEA4303CCE77FEA625307D1E6
:1048980050EA01331EBF4FF0FE4040F4400070471D
:1048A80001F0004040F0FE4040F40000704700BFB7
:1048B80008B5FBF7C3FE1B4D1B4C9FED1C8A19481E
:1048C800FDF792F8FBF7C0FCD5ED005A95ED006AAC
:1048D80095ED015AD5ED017AD5ED026A95ED027A8A
:1048E80065EE277AE5EE867AE6EE877A17EE900A85
:1048F800FFF778FC41EC100B00F046F851EC100B78
:10490800FFF786FF07EE900AF4EEC87AF1EE10FA88
:1049180002D50748FCF778FD012323602368002BA4
:10492800FCD1CCE7BC080020200900209A99993EC8
:10493800A8580008002100F004B80D4B5B584350FC
:1049480004310C480C4B42189A42FFF4F6AF0B4A5C
:1049580000F003B8002342F8043B094B9A42FFF4E5
:10496800F9AFFBF70DFF00F07BF9FFF7A1FF7047E8
:10497800B45A0008000000209C080020A00800206D
:104988002C090020FFF7FEBF70B52DED048BB0EEAB
:10499800408AF0EE608A294E8AB000F053F896F902
:1049A8000030B0EE409AF0EE609A01330FD0B0EECE
:1049B800480AF0EE680A00F011F940B10024002519
:1049C80051EC180B22462B46FFF7D2FE38B9B0EE51
:1049D800490AF0EE690A0AB0BDEC048B70BD184BA9
:1049E80036780193012200238DED048B8DED028B27
:1049F800009208936EB9CDE90645684600F018F9AB
:104A080088B1089BA3B99DED060B0AB0BDEC048BD9
:104A180070BD2046294622462B46FFF761FD022E2F
:104A2800CDE90601E9D100F005F921230360E8E7A3
:104A380000F000F9089B0360E5E700BF580000207C
:104A4800745A00082DE9F84353EC102B23F0004466
:104A5800240D614D2405AC422DED028BB0EE408A49
:104A6800F0EE608A194610EE100A00F09480002BD0
:104A780074DD1F157DD0A7F2FF37C1F31301FA07C4
:104A880041F480115FD4C30F4FF0000C03EB4103D6
:104A980042007F10654616204FF400116C189C42A6
:104AA8004FEAD2764FEA420202DC1B1B65188C449F
:104AB800013806EB43034FEA5101EFD18046202627
:104AC8004FF0004109E023D0D40F013E4FEA5101D5
:104AD80004EB43034FEA42021ED0AB4201EB080449
:104AE800F1DD04F00049B9F1004F04EB010809D0E9
:104AF800A9465B1B944288BF03F1FF33121B08448D
:104B08004D46E1E7B8F1000FF2DB05F10109F0E7E6
:104B18009442E6D91D46D7E71A4319D146084FEA09
:104B28006C0101F17F511CF0010F01F5001118BF54
:104B380046F0004601EB0753324643EC102BBDEC20
:104B4800028BBDE8F883C30F03EB410140009AE7ED
:104B5800431C2ED000F001031844DFE723F0004186
:104B68001143ECD063BB1F46C10A153F400500291D
:104B7800FAD011F480131FD14900CC0203F10103CC
:104B8800FAD5C3F10102C3F1200420FA04F4214349
:104B9800174498406FE751EC100BFFF777FB53EC85
:104BA800182BFFF7C1F9BDEC028B41EC100BBDE8E7
:104BB800F8830CF1010CB2E7202401220023E4E77A
:104BC80051EC100B0B46FFF7ADF902460B46FFF709
:104BD80087FC41EC100BB2E70000F07F53EC102B80
:104BE80033F0004110B408D00F48A1F58014844276
:104BF8000AD804205DF8044B7047002A0CBF022035
:104C080003205DF8044B7047B1F5801F01D20320E3
:104C1800F7E70648814201D00020F2E7D2F101000F
:104C280038BF0020EDE700BFFFFFDF7F0000F07F07
:104C380000207047014B1868704700BF88040020A7
:104C480008B50021044600F0DDF8044B1868C36B72
:104C580003B198472046FBF7E3FF00BF805A0008DE
:104C680070B50F4E0F4D761BB61007D0043D0024CB
:104C7800013455F8043F9847A642F9D10A4E0B4D26
:104C8800761B00F0FDFEB61008D0043D0024013468
:104C980055F8043F9847A642F9D170BD70BD00BFD2
:104CA800A85A0008A85A0008B05A0008A85A0008CC
:104CB800F0B4840743D0541E002A3ED0CDB2034638
:104CC80003E0621E002C38D0144603F8015B9A07F3
:104CD800F7D1032C2AD9CDB245EA05250F2C45EA90
:104CE800054515D9A4F110073F0903F1100606EB95
:104CF80007161A46156055609560D5601032B242A5
:104D0800F8D104F00F040137032C03EB07130DD976
:104D18001E462246043A032A46F8045BFAD8221FA4
:104D280022F003020432134404F003042CB1C9B284
:104D38001C4403F8011BA342FBD1F0BC7047144686
:104D48000346C6E738B50C460968054609B1FFF7BA
:104D5800F9FF28462146BDE8384000F037B900BFC2
:104D6800224B1B68984270B5054632D0C26CAAB176
:104D780000231E4652F8231009B907E021460C68A3
:104D8800284600F023F9002CF8D1EA6C0136202ED1
:104D98003346EFD11146284600F018F9296C11B1B5
:104DA800284600F013F9D5F8481159B105F5A6764B
:104DB800B14201D106E021460C68284600F006F908
:104DC800A642F8D1696D11B1284600F0FFF8AB6B27
:104DD80003B970BDEB6B28469847D5F8E012002957
:104DE800F7D02846BDE87040FFF7ACBF8804002024
:104DF800024B13B1024800F07DB870470000000074
:104E0800094F00082DE9F04F384B1B6885B003F5B2
:104E1800A472019302900F460392019BD3F8488134
:104E2800B8F1000F1CD0DDF80CB04FF00109DA46DC
:104E3800D8F804305C1E11D408F188059E1C05EBD7
:104E4800830508EB860677B1EB6FBB420BD0013CBC
:104E5800631CA5F10405A6F10406F4D1244A7ABB23
:104E680005B0BDE8F08FD8F8042056F8043C013AA4
:104E7800A24216BF0022C8F8044046F8042C002BB2
:104E8800E5D0D8F88811D8F804B009FA04F20A4233
:104E980010D0D8F88C110A420ED1029855F8041C8B
:104EA8009847D8F804305B45B7D1DAF80030434565
:104EB800CDD0B2E79847F4E755F8040C9847F0E7E7
:104EC800D8F804306BB9D8F8003063B14046CAF856
:104ED8000030AFF30080DAF80080B8F1000FA7D1F6
:104EE800BEE7D8F80030C2469846F6E7805A000870
:104EF80000000000014600200246034600F0E6BB21
:104F080038B5094D094C641BA41018BF05EB84057E
:104F180005D0013C55F8043D9847002CF9D1BDE86F
:104F2800384000F0B3BD00BFB05A0008B45A0008BA
:104F3800F8B5234D0F46044600F0B2FBAB685E6837
:104F480026F00306F11B01F6EF7121F47F6121F0D1
:104F58000F01A1F58057B7F5805F07DB20460021D8
:104F680000F0A2FBAB683344984204D0204600F01E
:104F780099FB0020F8BD2046794200F095FB0130EE
:104F88000DD0104BAA681968F61B46F0010620469A
:104F9800C91B5660196000F085FB0120F8BD20464A
:104FA800002100F081FBAB68C21A0F2ADEDD064D36
:104FB80004492D6842F00102401B5A600860D5E799
:104FC8008C040020F8080020980800202DE9F04102
:104FD8000D460646002955D000F062FB55F8041C22
:104FE800DFF874C121F00103A5F10804E218DCF828
:104FF80008005768904227F0030769D011F00101B3
:10500800576032D00021D0194068C00706D43B440D
:10501800906800294ED0D268C260906043F00102C7
:105028006260E350E1B9B3F5007F2DD35A0A042A30
:105038006AD89809383041000CEB810C4649DCF8F5
:105048000820624566D0516821F003018B4202D2E4
:1050580092689445F7D1D368E360A2609C60D460FD
:105068003046BDE8F04100F01DBB55F8085C641BF4
:105078000CF10808A06840452B4443D0E568C5609A
:10508800A860C0E7BDE8F081DB080CEBC30201258E
:10509800DCF804009168A1609B1005FA03F318433B
:1050A800E260CCF8040094603046CC60BDE8F04182
:1050B80000F0F8BA294DA842ADD143F00102CCF86E
:1050C8001440CCF81040E060A0606260E350C7E78D
:1050D8001F44CB0707D455F8083CE41A1F44A268BC
:1050E800E368D3609A601E4B1B6847F001029F4239
:1050F8006260CCF80840B3D31A4B30461968FFF702
:1051080017FFADE701217EE7142A0CD802F15B00F6
:10511800410091E74B688010012505FA00F0034330
:105128004B60134698E7542A03D8180B6E30410099
:1051380082E7B2F5AA7F03D8D80B773041007BE726
:1051480040F254518A4203D8980C7C30410073E7EE
:10515800FC217E2070E700BF8C040020940400200E
:1051680094080020F40800202DE9F04F01F10B0508
:10517800162D83B0064627D935F0070527D4A9424E
:1051880025D8304600F08CFAB5F5FC7F26D2C14F01
:105198004FEAD50C07EBCC03DC689C4200F0D281C7
:1051A8006368E268A16823F00303234430465D681E
:1051B800CA6045F0010591605D6000F073FA08343B
:1051C800204603B0BDE8F08F1025A942D9D90024A4
:1051D8000C232046336003B0BDE8F08F5FEA552CFE
:1051E80000F08A80BCF1040F00F260814FEA951C40
:1051F8000CF1380C4FEA4C01A64F07EB8101CC6843
:10520800A14205D10CE0002B7ADAE468A14207D06C
:10521800626822F00302531B0F2BF4DD0CF1FF3CF4
:105228000CF1010C9B4B3C6903F1080E744500F02E
:105238007E81616821F003014A1B0F2A00F3648113
:10524800002AC3F814E0C3F810E06ADAB1F5007F69
:1052580080F03A81C90803EBC1004FEAA1085A68F7
:105268008168A1604FF0010909FA08F848EA0202CA
:10527800E0605A608460CC604FEAAC03012098403B
:1052880090425BD8024206D12CF0030C4000024247
:105298000CF1040CFAD007EBCC084446E146E3686D
:1052A8009C4207D145E1002A80F25681DB689C4286
:1052B80000F03F81596821F003014A1B0F2AF2DDF3
:1052C8001C46D3F80CC054F8088F591945F0010949
:1052D80042F00105C3F804903046C8F80CC0CCF879
:1052E800088079613961C1F80CE0C1F808E04D60C7
:1052F8008A5000F0D7F963E77E214FF03F0C7BE737
:105308002244E3685068A16840F00105CB6030464C
:105318009960556000F0C6F90834204603B0BDE82E
:10532800F08F214430464B6843F001034B6000F096
:10533800B9F90834204603B0BDE8F08FBC6863684B
:1053480023F00309A94504D3C5EB09030F2B00F388
:105358009180514B514A19681368013305EB010AD2
:1053680004EB090B00F061810AF5805A0AF10F0A73
:105378002AF47F6A2AF00F0A30465146019200F05B
:1053880093F9B0F1FF3F8046019A00F00081834510
:1053980000F2FA80DFF810C1DCF80030C34553444E
:1053A800CCF8003000F04A8112683C4901321BBF3A
:1053B800CBEB080B5B44C1F80080CCF8003018F048
:1053C800070300F01381C3F10802C3F5805390442A
:1053D8000833C244CAF30B0ACAEB030A51463046E3
:1053E800CDF804C000F060F9431CDDF804C000F0FB
:1053F8003581C8EB0002524442F00102DCF800306B
:10540800C7F808805344BC42C8F80420CCF80030E0
:10541800DFF894A015D0B9F10F0F40F2EA80616867
:10542800A9F10C0222F0070201F0010EA1180520D3
:1054380042EA0E0E0F2AC4F804E04860886000F2C1
:105448001181174ABC6811688B4288BF1360154ADE
:1054580011688B4288BF1360626822F0030295428C
:10546800C5EB020301D80F2B04DC304600F01AF913
:105478000024A5E6621943F0010345F001056560C3
:105488003046BA60536000F00DF90834204603B086
:10549800BDE8F08F8C040020F40800209808002054
:1054A800F0080020EC080020F8080020BCF1140FD8
:1054B80061D9BCF1540F00F28F804FEA153C0CF112
:1054C8006E0C4FEA4C0197E64B0A042B58D9142B63
:1054D80000F2AE8003F15B02500007EB8000DFF8BA
:1054E800BC818368834200F08A805A6822F00302F4
:1054F800914202D29B689842F7D1D9687A68E160F4
:10550800A3608C60DC60B7E6611942F0010745F0E2
:1055180001056560304659611961C1F80CE0C1F8B0
:1055280008E04F608A50083400F0BCF848E65A6832
:10553800A2E609F1010919F0030F04F108047FF448
:10554800AEAE2DE004F108036469A34208BF0CF174
:10555800020C3FF467AE23E619441C464868DB6832
:1055680054F8082F40F001054D603046D3609A602A
:1055780000F098F824E60CF15B0C4FEA4C013BE68E
:105588008A0938325000A8E7BC423FF403AFBC6830
:10559800626822F0030262E7D8F8008098457BD160
:1055A8001CF0030FA8F108030CF1FF3CF4D17B6851
:1055B80023EA00037B60400098423FF6BFAE002814
:1055C8003FF4BCAE0342CC467FF465AE40000342D4
:1055D8000CF1040CFAD05EE6BCF5AA7F1AD84FEAA3
:1055E800D53C0CF1770C4FEA4C0105E64FF480539B
:1055F800EFE60123C8F80430444600222FE7911053
:105608000120D8F8042000FA01F10A43C8F8042060
:10561800194674E740F254539C451BD84FEA954C01
:105628000CF17C0C4FEA4C01E6E50AF1100AA3E6FE
:10563800542B1FD80A0B6E3250004EE7CBF30B01E8
:1056480000297FF4B1AE0AEB0901BA6841F0010103
:105658005160F6E6FC214FF07E0CCDE501224FF0BB
:10566800000ACBE604F108013046FFF7AFFCDAF890
:105678000030E6E6B3F5AA7F03D8CA0B77325000AC
:105688002BE740F25452934203D88A0C7C325000E4
:1056980023E7FC207E2220E77B688CE78C0400202F
:1056A800704700BF704700BF38B5074C0023054658
:1056B80008462360FBF71CFA431C00D038BD23685A
:1056C800002BFBD02B6038BD28090020F0B5274CF3
:1056D8002668D6F8484185B00746002C41D0656851
:1056E8001F2D1EDD224818B94FF0FF3005B0F0BD60
:1056F8004FF4C870039102920193AFF300800399AD
:10570800029A019B04460028EED0D6F8485125603D
:10571800002060600546C6F84841C4F88801C4F80E
:105728008C013FB9AB1C00200135656044F823109B
:1057380005B0F0BD04EB85004FF0010CC0F88820DF
:10574800D4F888610CFA05F21643022FC4F8886170
:10575800C0F80831E6D1D4F88C311A43C4F88C214A
:10576800E0E706F5A674C6F84841B8E7805A00088D
:105778000000000008000000080000000800000009
:105788000800000000100020004000800400000015
:1057980004000000040000000400000020000000D5
:1057A8000000040006000A000800070007000B00BC
:1057B8000800070040000004800000080600000000
:1057C80000000000000000000100000001000000CF
:1057D800010000006163632E783A2025642E256459
:1057E80020670D0A000000006163632E793A2025C6
:1057F800642E256420670D0A000000006163632E93
:105808007A3A2025642E256420670D0A00000000DE
:105818006D61672E783A2025642E256420676175AE
:1058280073730D0A000000006D61672E793A202518
:10583800642E25642067617573730D0A00000000EB
:105848006D61672E7A3A2025642E2564206761757C
:1058580073730D0A00000000726F742E783A2025C9
:10586800642E2564206465672F730D0A000000000C
:10587800726F742E793A2025642E2564206465673A
:105888002F730D0A00000000726F742E7A3A2025DB
:10589800642E2564206465672F730D0A00000000DC
:1058A8004361746368206D65212049276D20466136
:1058B8006C6C696E672121210D0A0A004E4D495F03
:1058C80048616E646C65720D0A000000486172647C
:1058D8004661756C740D0A00202070633A202578A3
:1058E8000D0A000020207073723A2025780D0A00F6
:1058F80020206C723A2025780D0A00004D656D4D08
:10590800616E6167655F48616E646C65720D0A005F
:105918004275734661756C745F48616E646C65723C
:105928000D0A000055736167654661756C745F48C0
:10593800616E646C65720D0A0000000020202578F5
:105948000D0A000020204469766964652062792088
:105958007A65726F0D0A00002020556E616C6967C8
:105968006E6564206163636573730D0A000000004F
:1059780020204E6F20636F2D70726F636573736F95
:10598800720D0A002020496E76616C6964205043CC
:10599800206C6F61640D0A002020496E76616C6985
:1059A800642073746174650D0A0000002020556E30
:1059B800646566696E656420696E73747275637474
:1059C800696F6E0D0A0000005356435F48616E64AC
:1059D8006C65720D0A00000044656275674D6F6E54
:1059E8005F48616E646C65720D0A000050656E64F4
:1059F80053565F48616E646C65720D0A00000000C2
:105A08004865617020616E6420737461636B206304
:105A18006F6C6C6973696F6E0A0000006578697451
:105A280000000000286E756C6C29000009094661A9
:105A3800696C75726520726563656976696E672041
:105A4800446174615F4C0D0A000000000909466159
:105A5800696C75726520726563656976696E672021
:105A6800446174615F480D0A00000000737172742C
:105A7800000000004300000060000020000000005B
:105A8800F8B500BFF8BC08BC9E467047F8B500BF23
:085A9800F8BC08BC9E467047F3
:085AA0003CA7FF7F010000009C
:085AA800F94D0008AD010008F2
:045AB0008901000860
:105AB40000000000000000000000000001020304D8
:105AC40006070809007A030AE8080020000000001D
